:020000040800F2
:1000000000040020B9010008BB010008BB01000882
:10001000BB010008BB010008BB010008BB010008D0
:10002000BB010008BB010008BB01000845A900088E
:10003000BB010008BB010008BB01000853BE00085B
:10004000BB010008BB010008BB010008BB010008A0
:10005000BB010008BB01000875BB00089DBB000880
:10006000C5BB0008EDBB000815BC0008BB010008BB
:10007000BB010008BB010008CDC80008BB01000897
:100080003DBC0008BB01000871C10008BB010008AD
:1000900085C10008BB01000859BF000889C10008DC
:1000A000BB010008BB010008B9C40008CDC40008AA
:1000B000BB010008BB01000899C20008BB01000891
:1000C000ADC20008A1BC0008BB010008BB010008CC
:1000D000BB010008BB010008BB010008BB01000810
:1000E00072B6264880F30888254880F30988254899
:1000F00025490860022080F31488BFF36F8F0AF04F
:10010000F5F809F059FC4FF0553020491B4A91424F
:100110003CBF41F8040BFAE71D49194A91423CBF24
:1001200041F8040BFAE71B491B4A1C4B9A423EBF9D
:1001300051F8040B42F8040BF8E700201849194A5B
:1001400091423CBF41F8040BFAE70AF0D3F80AF0F9
:10015000CEF8154C154DAC4203DA54F8041B884711
:10016000F9E707F025F8124C124DAC4203DA54F8C7
:10017000041B8847F9E70AF0BBB800000004002020
:10018000000C00200000000808ED00E00000002046
:1001900000040020B0EB0008000C0020D411002067
:1001A000D8110020E4490020E0000008E000000829
:1001B000E0000008E000000892E704F0ABFFFEE773
:1001C0002DE9F04FC1F80CD0C3689D46BDE8F08F13
:1001D000002383F311882846A04700200AF0B8FACC
:1001E000FEE70AF0E9F900DFFEE7000053B94AB97B
:1001F000002908BF00281CBF4FF0FF314FF0FF302F
:1002000000F08AB9ADF1080C6DE904CE00F01AF8DF
:10021000DDF804E0DDE9022304B07047430803F091
:100220005533C01A830803F0333300F033301844D9
:1002300000EB101000F00F3000EB002000EB00404E
:10024000000E70472DE9F047089E0D46044688468B
:10025000002B4DD18A42944668D9B2FA82F252B14B
:1002600001FA02F3C2F1200120FA01F10CFA02FCBA
:1002700041EA030894404FEA1C41B8FBF1F71FFA2A
:100280008CFE01FB178807FB0EF0230C43EA0843A2
:1002900098420AD91CEB030307F1FF3580F01E8159
:1002A000984240F21B81023F63441B1AB3FBF1F0FA
:1002B00001FB103300FB0EFEA4B244EA0344A64542
:1002C0000AD91CEB040400F1FF3380F00981A64534
:1002D00040F20681644402380021A4EB0E0440EA97
:1002E00007401EB10023D440C6E90043BDE8F087B3
:1002F0008B4208D9002E00F0EE800021C6E90005EF
:100300000846BDE8F087B3FA83F100294AD1AB4231
:1003100002D3824200F2FC80841A65EB03030120C1
:100320009846002EE2D0C6E90048DFE702B9FFDEBA
:10033000B2FA82F2002A40F09180A1EB0C00012178
:100340004FEA1C471FFA8CFEB0FBF7F307FB1300C4
:10035000250C45EA00450EFB03F0A84208D91CEB2A
:10036000050503F1FF3802D2A84200F2CE804346D1
:100370002D1AB5FBF7F007FB10550EFB00FEA4B2DB
:1003800044EA0544A64508D91CEB040400F1FF35F6
:1003900002D2A64500F2B6802846A4EB0E0440EA3D
:1003A00003409EE7C1F120078B4022FA07FC4CEA8C
:1003B000030C25FA07FA4FEA1C49BAFBF9F820FAB0
:1003C00007F309FB18AA8D401FFA8CFE1D4300FAA3
:1003D00001F308FB0EF02C0C44EA0A44A04202FA96
:1003E00001F20BD91CEB040408F1FF3A80F088807D
:1003F000A04240F28580A8F102086444241AB4FBAC
:10040000F9F009FB104400FB0EFEADB245EA0444CE
:10041000A64508D91CEB040400F1FF356CD2A645B3
:100420006AD90238644440EA0840A0FB0295A4EB74
:100430000E04AC42C846AE4656D353D0002E69D007
:10044000B3EB080264EB0E0422FA01F304FA07F797
:100450001F43CC40C6E90074002147E70CFA02FCB8
:10046000C2F1200125FA01F34FEA1C4720FA01F1FD
:1004700095400D43B3FBF7F107FB11331FFA8CFED8
:10048000280C40EA034001FB0EF3834204FA02F415
:1004900008D91CEB000001F1FF382FD283422DD97F
:1004A00002396044C01AB0FBF7F307FB1300ADB28A
:1004B00045EA004503FB0EF0A84208D91CEB0505F0
:1004C00003F1FF3816D2A84214D9023B6544281A1A
:1004D00043EA014138E73146304607E72F46E4E674
:1004E0001846F9E64B45A9D2B9EB020865EB0C0EAC
:1004F0000138A3E74346EAE7284694E74146D1E7B7
:10050000D0467BE76444023847E7023B65442FE767
:10051000084606E73146E9E6704700BF062008B501
:1005200000F00EFA01200BF0A5F900BF032A10B568
:1005300016D940EA010C1CF0030F04460B4622D1E9
:1005400019462046D1F800E0D0F800C00433F44545
:1005500004F1040417D1043A032A20461946EFD8BF
:10056000541EA2B100F1FF3C013901E0C3180CD0C8
:100570001CF801EF11F8012FA4EB0C039645F5D000
:10058000AEEB020010BD541EECE7184610BD10463D
:1005900010BD00BF844641EA000313F0030349D1B4
:1005A000403A23D30B6803604B6843608B688360D9
:1005B000CB68C3600B6903614B6943618B698361DD
:1005C000CB69C3610B6A03624B6A43628B6A8362C5
:1005D000CB6AC3620B6B03634B6B43638B6B8363AD
:1005E000CB6BC36340304031403ADBD230320BD367
:1005F0000B6803604B6843608B688360CB68C360A3
:1006000010301031103AF3D20C3205D351F8043BBC
:1006100040F8043B043AF9D2043208D0D2071CBF98
:1006200011F8013B00F8013B01D30B8803806046C1
:10063000704700BF082A13D38B07B1D010F0030313
:10064000AED0C3F10403D21ADB071CBF11F8013B83
:1006500000F8013BA4D331F8023B20F8023B9FE7AE
:10066000043AD9D3013A11F8013B00F8013BF9D221
:100670000B7803704B7843708B78837060467047BB
:10068000830730B548D0541E002A3FD00346CAB273
:1006900001E0013C3AD303F8012B9D07F9D1032C6B
:1006A0002DD9CDB245EA05250F2C45EA054536D9A9
:1006B000A4F1100222F00F0C03F1200EE6444FEAE1
:1006C000121C03F1100242E9045542E902551032AE
:1006D0007245F8D10CF1010214F00C0F03EB021279
:1006E00004F00F0C13D0ACF1040323F00303043324
:1006F000134442F8045B9342FBD10CF003042CB189
:10070000CAB21C4403F8012B9C42FBD130BD6446A5
:100710001346002CF4D1F9E703461446BFE71A4606
:10072000A446E0E738B5124B04461D68AA6B1AB11F
:100730000023C2E9044338BD182000F02DFA024618
:10074000A86378B100210B2301209381C2E9040141
:10075000084B0949094DC2E9011300231560C2E99C
:10076000044338BD4221064B064800F0CDF900BFD6
:10077000000C0020ECDE050034126DE60E33CDAB2C
:10078000E0EA0008F8EA000838B5194B1C68A26BCB
:100790008AB113691749546903FB01F1164800FB3C
:1007A0000411A3FB0030013341EB0001C2E9043125
:1007B00021F0004038BD182000F0EEF90246A06399
:1007C00088B1012400250B230A480C49C2E90445DD
:1007D000116001460A4D0B4C93810B4BC2E9015449
:1007E000C2E9043138BD4E21084B094800F08CF9AC
:1007F000000C00202DF451582D7F954C0E33CDABBD
:1008000034126DE6ECDE05002E7F954CE0EA000820
:10081000F8EA000838B5446C0CB1002038BD8021DE
:10082000054600F02FFA0246686430B1031F7C329F
:1008300043F8044F9342FBD1EFE74FF0FF3038BD50
:100840001F29F8B5054608D8466C0C4617464EB128
:1008500056F8240046F82470F8BD16234FF0FF30F8
:100860002B60F8BD802100F00DFA0646686440B1A7
:100870000021031F00F17C0543F8041F9D42FBD1BA
:10088000E6E74FF0FF30F8BD1F2938B5054620D800
:10089000426C0C466AB152F8213053B1012B16D08C
:1008A000591C10D00025204642F82450984728466D
:1008B00038BD284600F0F8F8224601462846BDE833
:1008C000384000F0DDB8162301202B6038BD002031
:1008D00038BD16234FF0FF302B6038BD1F292BD8B1
:1008E000426C38B50C46054682B152F8243002EB12
:1008F00084024BB1591C1AD0012B16D0002520467A
:1009000015609847284638BD012038BD802100F089
:10091000B9F90246686460B10020131F02F17C013E
:1009200043F8040F9942FBD1DFE7032038BD0220D2
:1009300038BD4FF0FF3038BD4FF0FF30704700BF7B
:1009400038B5144B1F281D681FD86A6C044662B165
:1009500052F820304BB1012B15D0591C0FD0002577
:1009600042F820509847284638BD284600F09CF8A9
:10097000224601462846BDE8384000F081B81623DB
:1009800001202B6038BD002038BD16234FF0FF300A
:100990002B6038BD000C0020124B1F2870B51E685C
:1009A00008D80D46716C044649B151F8240041F84D
:1009B000245070BD16234FF0FF30336070BD80218E
:1009C000304600F05FF90146706440B10022031F19
:1009D00000F17C0C43F8042F6345FBD1E5E74FF0B1
:1009E000FF3070BD000C002038B50B4B1D686C6CDF
:1009F0000CB1002038BD8021284600F043F968641E
:100A000038B1031F00F17C0243F8044F9342FBD13D
:100A1000EFE74FF0FF3038BD000C002038B5174B22
:100A20001F281D6827D86A6C044682B152F824300A
:100A300002EB84024BB1591C1BD0012B17D00025AF
:100A4000204615609847284638BD012038BD8021D2
:100A5000284600F017F90246686460B10020131FB1
:100A600002F17C0143F8040F8B42FBD1DEE7032047
:100A700038BD022038BD4FF0FF3038BD000C0020DB
:100A800070B50026074D0446084611462E600AF050
:100A9000F9FE431C00D070BD2B68002BFBD02360F7
:100AA00070BD00BFE01100200AF0F4BE20F0030189
:100AB00010F00300C0F1000051F8043B00F1040CF9
:100AC0004FEACC0C6FF000021CBF22FA0CF2134369
:100AD0004FF0010C4CEA0C2C4CEA0C4CA3EB0C0232
:100AE00022EA030212EACC1204BF51F8043B04309C
:100AF000F4D0C2F1000102EA0102B2FA82F2C2F1BC
:100B00001F0200EBD2007047144600B51A460A4B8C
:100B10000D461B6885B0DE6803464CB1074901915C
:100B2000304607490294009500F022F8FFF7F6FCE2
:100B300004490C46F3E700BF000C00202CEB000832
:100B40003CEB000838EB000808B513460022FFF71D
:100B5000DBFF00BF0CB400B583B004AB53F8042B2B
:100B6000019300F025F903B05DF804EB02B0704783
:100B70000EB400B5074A82B003AB0146106853F8C3
:100B8000042B019300F014F902B05DF804EB03B0FC
:100B9000704700BF000C0020024B0146186800F0AF
:100BA00071B800BF000C0020024B0146186800F02D
:100BB00003B800BF000C0020002952D038B551F80E
:100BC000043C0C1F002BB8BFE418054601F02AFABC
:100BD0002B4A1368002B45D0A3420CD9216860181A
:100BE000834228D0636028461460BDE8384001F095
:100BF0001BBAA3420FD81A465B68002BF9D11168C3
:100C0000501884421DD034D3636054602846BDE838
:100C1000384001F009BA11685018A04215D028D800
:100C2000216860188342EFD118685B680144C4E909
:100C300000135460EAE718685B680144C4E90013D4
:100C4000D1E7236819441160E0E720680144501897
:100C500083421160DAD1D3E900030144C2E90013F1
:100C6000D4E77047284663601460BDE8384001F05F
:100C7000DBB90C2328462B60BDE8384001F0D4B91D
:100C8000D8110020F8B5CD1C25F0030508350C2D32
:100C900038BF0C25002D064623DBA94221D8264F5C
:100CA00001F0C0F93A6822B3144603E063682246B3
:100CB000FBB11C4623685B1BF8D40B2B15D863686B
:100CC00094420CBF3B605360304601F0ADF904F133
:100CD0000B00231D20F00700C21A01D01B1AA350DD
:100CE000F8BD0C2300203360F8BD23601C44256050
:100CF000EAE77968D1B1294630460AF09FFD431CE6
:100D000001460CD0C41C24F00304A04205D0304698
:100D1000611A0AF093FD013001D02560D4E70C235D
:100D20003046336001F080F90020F8BD30460AF00B
:100D300085FD7860DFE700BFD81100209368013B94
:100D4000002B936005DAD2F818C0634507DB0A2947
:100D500005D01368581C106008461970704700F0E1
:100D600069BB00BF9BB1F8B5134406460F46541E3D
:100D70005D1E01E0AC4208D03A46304614F8011F2F
:100D8000FFF7DCFF431CF5D1F8BD0020F8BD0020C3
:100D9000704700BF936810B5144613B918465360E6
:100DA00010BD00F031FE0023C4E9013310BD00BFC7
:100DB0002DE9F04F0E4692461C4607469FB018B1EB
:100DC0008369002B00F0A880954B9E4200F0AA801A
:100DD000944B9E4200F0B580934B9E4208BFFE6844
:100DE000B389180740F1A3803369002B00F09F807E
:100DF000002320220B9330239AF80010059401253C
:100E00008A4C8DF831208DF8323000297DD0D146C2
:100E10000B4604E019F8013F002B00F09480252BCD
:100E2000F8D1B9EB0A0B40F0918099F80030002B13
:100E30006BD000234FF0FF3209F10109CDE9072300
:100E4000069309938DF85B301C9304E0001B05FAB0
:100E500000F018430690CA460522204619F8011BE7
:100E600001F01CF8069B0028F0D1D90644BF2022CF
:100E70008DF85B201A0748BF2B229AF8001048BF54
:100E80008DF85B202A2972D1059A11680432002955
:100E90000592C0F2A08009919AF801100AF1010AA6
:100EA0002E2976D0DFF888910322484600F0F6FF1D
:100EB00048B14022069BA0EB090002FA00F0034370
:100EC0000AF1010A06931AF8011B062259488DF807
:100ED000301000F0E3FF002800F08380564B002B19
:100EE0006CD005A9009132463846544B06A9AFF3A1
:100EF00000800390039B013307D00B9B039A9AF861
:100F0000001013440B93002981D1B3895B0615D4DB
:100F10000B981FB0BDE8F08F00F056FD404B9E428D
:100F20007FF456AF7E68B38918073FF55DAF314651
:100F3000384600F0E1FA00283FF45AAF4FF0FF3096
:100F4000E7E7BE684CE7B9EB0A0BDED0D046CAF142
:100F5000010A03E0934538D918F8011F3246384694
:100F6000FFF7ECFE01300AEB0802F3D1CDE7A1F167
:100F70003002092A94D8099B1AF8011F03EB830356
:100F800002EB4303A1F13002092AF5D92E29099376
:100F900088D19AF801102A292DD1059B0AF1020067
:100FA0001A680433002A0593B8BF4FF0FF339AF84C
:100FB000021007928246B8BF079373E7059B073379
:100FC00023F007030833059397E70B9A99F800304D
:100FD0005A440B922BE7494243F0020309910693CE
:100FE0005AE705A9009132463846144B06A900F08D
:100FF000CBF803907EE70023A1F13002092A0AF121
:10100000010A07933FF64EAF1AF8011F03EB830363
:1010100002EB4303A1F13002092AF5D9079341E716
:10102000C0DE0008A0DE000880DE00086CEB0008CF
:1010300074EB000878EB000800000000650D000864
:101040008C4600B586461346034A714610685DF823
:1010500004EB6246FFF7ACBE000C00202DE9F04720
:1010600091461E460A698B680C469A42B8BF1A46DA
:10107000C9F8002091F843300546DDF8208013B10F
:101080000132C9F80020226891065DD5D9F80030F8
:101090000233C9F80030226812F0060F11461ED143
:1010A000E168CB1A002BD8BF114618DD002704F1E8
:1010B000190A06E0D9F80030E268A2EB030CBC453F
:1010C0000CDD0123524631462846C047013007F166
:1010D0000107EFD14FF0FF30BDE8F087216894F8A9
:1010E0004330003B18BF01238A060AD53021E2189D
:1010F00082F8431094F845105A1C2244023382F8B7
:1011000043103146284604F14302C0470130E1D084
:10111000236803F00603042B1DD0A36822699342C1
:1011200025DD00279B1A1F4404F11A09002401E061
:10113000BC421CDA01234A4631462846C0470130EA
:1011400004F10104F4D1C5E712F0060F12D0003B00
:1011500018BF0123D5E7D9F80030E1682269C91A20
:10116000A36821EAE1779342DCDC0029DCDC002083
:10117000BDE8F087E168D9F80030CB1A002BD8BF62
:10118000114693DCABE700BF2DE9F04317460A7E1A
:1011900085B00C46064698460C9D01F1430C002A8A
:1011A00033D0A2F15803D9B2202967D8202B65D8B3
:1011B000DFE813F0DD006400640064006400640094
:1011C00064006400640064006400A3006E006400B6
:1011D0006400640064006E006400640064006400E5
:1011E00021007F00BF0064006400AE0064007F0047
:1011F00064006400E40023681A0640F102812B6851
:101200006269191D29601B681A600023E146236189
:101210003B4621463046CDF8008003AAFFF71EFF6B
:10122000013020D04A46394630462369C047013054
:1012300019D02368E0689B07039919D5431A002B3E
:1012400016DD002504F1190904E0E0680399431A4A
:10125000AB420DDD01234A4639463046C0470130D6
:1012600005F10105F1D14FF0FF3005B0BDE8F08385
:101270008842B8BF084605B0BDE8F083012384F872
:10128000422004F142092361002384F84330BFE780
:101290002368190602D45A0600F1BF8029680A683B
:1012A000043129601146002A6ADB0A25DFF87CE157
:1012B00010E02368180640F19A802B68191D2960F8
:1012C00019686F2A0CBF08250A25DFF860E10023A2
:1012D00084F843306268002AA2607DDB236823F033
:1012E00004032360002959D1002A77D1E146082D53
:1012F00063D0ACEB090323618AE701222B6804F178
:101300004209196804332B6084F842102261BBE75C
:101310002B6800211A1D2A60D3F8009062684846A5
:1013200000F0BCFD00287FD0A0EB090060602061C8
:10133000AAE7236843F0200323607822DFF8F0E077
:1013400084F845202A68111D2960190642D45D06DB
:1013500040D51188D80744BF43F0200323600029FB
:1013600043D12368102523F020032360AFE75823DF
:10137000DFF8B8E084F845302368E3E72368DCE76A
:101380002D2284F8432062684942002AA26002DBD1
:1013900023F0040323600A25DFF890E0E146B1FB67
:1013A000F5F30A4605FB131019461EF80030AA4251
:1013B00009F8013DF3D2082D9BD12368D90798D5B0
:1013C000626823699A4294DC302309F1FF3989F875
:1013D00000308EE71168BDE70029DFD19EF80030AC
:1013E00004F1420984F8423081E710256FE713F0D9
:1013F000400F2B6803F1040129600CBF196819889C
:101400005FE713F0400F2B68626903F10401296064
:101410001B6814BF1A801A60F7E62A68B2F9001038
:1014200004322A600A463EE7606880E780EB0008E5
:1014300094EB0008F8B506460D46144608B18369DA
:1014400043B3254B9C422AD0244B9C4229D0244BA9
:101450009C4208BFF468A269A389A2601A0722D53A
:10146000236903B322686169D31AEDB299422F460A
:1014700029DD0133A1680139A160511C216015707B
:1014800062699A4216D0A389DB0701D50A2D11D0D3
:101490003846F8BD00F098FA0F4B9C42D4D17468DE
:1014A000D9E7B468D7E72146304600F025F838B9C7
:1014B0002369D7E72146304600F024F90028E7D019
:1014C0004FF0FF37E4E72146304600F01BF90028D3
:1014D000F6D101232268CDE7C0DE0008A0DE0008B7
:1014E00080DE000803460A46024908681946FFF7ED
:1014F000A1BF00BF000C00203C4B70B51D68064624
:101500000C460DB1AB69E3B1394B9C421FD0394B4E
:101510009C424DD0384B9C4208BFEC68B4F90C306B
:1015200018079AB219D5216911B312F001002FD012
:1015300000256069A5604042A06100292ED00020EE
:1015400070BD284600F040FA294B9C42DFD16C6800
:10155000B4F90C3018079AB2E5D4D1063ED552073B
:1015600028D4216943F00803A3819AB20029DCD171
:1015700002F42070B0F5007FD7D02146304600F04D
:10158000FFFBB4F90C3021699AB212F00100CFD1FF
:10159000950758BF6069A0600029D0D1120658BFD6
:1015A0000846CDD543F040034FF0FF30A38170BD16
:1015B000AC68B3E7616B51B104F14402914204D0CD
:1015C0003046FFF7F9FAB4F90C30002262630022CA
:1015D000216923F02403C4E90012C3E7092243F080
:1015E000400332604FF0FF30A38170BD000C00203B
:1015F000C0DE0008A0DE000880DE0008F8B58B8998
:101600000C46190707463BD46268002A55DDE66A96
:10161000002E50D000223D683A6013F4805250D121
:1016200001233846216AB047421C5CD0A389E66A90
:101630005B0705D56368C01A636B0BB1236CC01AD6
:101640000246216A00233846B047411C3BD13B6823
:10165000002B38D01D2B01D0162B4BD10023226933
:10166000C4E90023616B3D6029B304F1440399424E
:1016700002D03846FFF7A0FA002318466363F8BD8E
:101680002669C6B19A0718BF0023256808BF636999
:101690002660AD1BA3600CE02B463246D4F828C070
:1016A0003846216AE047B0F1000CA5EB0C05664412
:1016B00012DD002DF0DC0020F8BD226C002AA6DC33
:1016C000F9E7606DB4E70022236962602360A389B3
:1016D000DB04C7D56065C5E7A3894FF0FF3043F051
:1016E0004003A381F8BD3B68002B9FD01D2B06D083
:1016F000162B04D0A38943F04003A381F8BD00203A
:101700003D60F8BD38B50B69BBB10C46054608B164
:101710008369B3B10D4B9C4211D00D4B9C4213D049
:101720000C4B9C4208BFEC68B4F90C302BB121463D
:101730002846BDE83840FFF761BF002038BD6C681F
:10174000F2E700F041F9E5E7AC68EDE7C0DE00083C
:10175000A0DE000880DE000838B540B30369044607
:10176000E3B1174B1D680DB1AB69CBB1154B9C4272
:101770000FD0154B9C4221D0144B9C4208BFEC6803
:10178000B4F90C3053B121462846BDE83840FFF784
:1017900035BF6C68B4F90C30002BF4D1002038BD93
:1017A000284600F011F9074B9C42E2D1F1E7084BC3
:1017B00008491868BDE8384000F0BEBAAC68DFE7F9
:1017C000000C0020C0DE0008A0DE000880DE00085B
:1017D0007CDE00080517000800207047014900F072
:1017E000ABBA00BF0517000800207047682270B52B
:1017F0004D1E02FB05F50E4605F17401FFF742FA96
:10180000044640B100210C30C4E9016005F16802D2
:101810002160FEF735FF204670BD00BF274B2DE944
:10182000F0411E680746B36953B34FF004084836C9
:10183000D6E90134013B04D51EE05A1C04F16804CA
:101840001AD0B4F90C50013B002DF6D11C4B0822E4
:101850002946C4E90055C4E90253C4E90455656644
:10186000A56104F15C00FEF70BFFC4E90D55C4E966
:1018700012552046BDE8F08135682DB12E46D7E7D8
:10188000304600F01FF8D0E74FF4D6713846FFF726
:10189000F9F9044668B1056029460546C0F8048098
:1018A0000C304FF4D072A060FEF7EAFE34602E4692
:1018B000BEE70C2330603B60DBE700BF7CDE000846
:1018C0000100FFFF0023334A2DE9F0471268C0E909
:1018D00012339042036508BF01232F4908BF83617B
:1018E00081620546FFF79AFF034628466B60FFF7C3
:1018F00095FFA86028460024FFF790FF04236E6838
:10190000DFF898A0DFF89890DFF89880264FE8601D
:101910000822F3602146C6E90044C6E9044474661F
:10192000B460B46106F15C00FEF7AAFE1F4BC6E985
:10193000086AC6E90A983763AE680822F360214650
:10194000C6E90044C6E904447466B460B46106F1B3
:101950005C00FEF795FE164BC6E9086AC6E90A98D0
:101960003763EE682146F3600822C6E90044C6E901
:1019700004447466B460B46106F15C00FEF780FE56
:101980000123C6E9086AC6E90B87C6F82890AB614F
:10199000BDE8F0877CDE0008DD1700087D20000828
:1019A000A5200008E5200008052100080900010025
:1019B00012000200024B0349186800F0BDB900BFD5
:1019C0007CDE000805170008836903B97AE77047D1
:1019D000704700BF704700BF704700BF704700BF2F
:1019E000024B0349186800F087B900BF000C0020C3
:1019F000D9170008024B0349186800F07DB900BFF1
:101A0000000C0020E91700089368002B00F0B78055
:101A10002DE9F04FB1F90C300C46190780461746F6
:101A200083B098B225D523691BB310F002033D683B
:101A30002DD04FF0000B5E46DFF8B8A2002E00F06C
:101A40008B80564533465A4628BF53464046216A46
:101A5000D4F828C0E047002840F38780BB6883445F
:101A60001B1A361ABB60002BE8D1002003B0BDE87A
:101A7000F08F21464046FFF73FFD002840F03681B9
:101A8000B4F90C303D6898B210F00203D1D110F0D7
:101A9000010976D14E46002E5AD08205D4F808B0FE
:101AA00040F1B580B3455A4600F2CD8010F4906FF6
:101AB00000F0CB8023682169A3EB010B636903EB82
:101AC000430A0AEBDA7A0BF101034FEA6A0A33445C
:101AD0005345524684BF9A465246430540F1EA8038
:101AE00011464046FFF7CEF8002800F0F9805A462C
:101AF00021690190FEF74EFDA289019B22F49062BC
:101B000042F08002A28103EB0B0023613246AAEB74
:101B10000B03B346C4F814A0A3602060B2460026AD
:101B20004946019200F002FAA3682168019AA3EBEA
:101B30000B030A44A3602260B868D144A0EB0A00FA
:101B4000B860002891D0B4F90C0080B2002EA4D166
:101B5000D5E9009608359EE7D5E900B608356DE76A
:101B600021464046FFF7CEFD80B3B4F90C304FF06C
:101B7000FF3043F04003A38103B0BDE8F08F0020A5
:101B800070471E46AA46994618461D4656B3002879
:101B900032D04A4620682169B24228BF3246884284
:101BA000636904D9A16803EB010B5A4574DC9342C5
:101BB00065DC2A464046216AD4F828C0E047B0F1E7
:101BC000000BD2DDB9EB0B09CAD00120BB685D4424
:101BD000A3EB0B03A6EB0B06BB60002B3FF445AF5A
:101BE000002ED4D10AF1080353F8046C9A4653F836
:101BF000085C0833002EF7D032460A21284600F050
:101C00004DF9002869D00130A0EB0509C1E7206833
:101C1000236998421BD86369B34218D86FF0004C0F
:101C2000B44528BFB4469CFBF3FC4A4603FB0CF3C7
:101C30004046216AD4F828C0E047B0F1000A94DD9C
:101C4000A6EB0A0678E7B3463246206866E7B34556
:101C5000DA4628BFB2464946524600F067F9A36803
:101C60002268A3EB0A035244A3602260002BE7D151
:101C700021464046FFF746FD0028E1D075E729469A
:101C80009346019200F052F9A368019A9B1AA3604F
:101C900023681A44226095E729465A4600F046F91F
:101CA000236821465B4440462360FFF72BFD002854
:101CB00088D05AE7404600F0B9F9034600287FF47F
:101CC00022AF40462169FEF777FF0C22B4F90C30B1
:101CD000C8F8002023F0800349E7721C914659E7B9
:101CE0000C22B4F90C30C8F8002040E74FF0FF3068
:101CF000BCE600BF00FCFF7F2DE9F04100268846CE
:101D000000F14807D7E90154013D0ED4A389013DF4
:101D1000012B06D9B4F90E30013302D02046C0475A
:101D200006436B1C04F16804F0D13F68002FE9D131
:101D30003046BDE8F08100BF2DE9F8434FF00009BF
:101D40000746884600F14806D6E90154013D10D403
:101D5000A389013D012B08D9B4F90E30013304D019
:101D600021463846C04749EA00096B1C04F1680463
:101D7000EED13668002EE7D14846BDE8F88300BFB3
:101D8000F0B58B890C46990797B007D5012204F16D
:101D90004703C4E90432236017B0F0BDB4F90E1054
:101DA000054600292DDB6A4609F055FD002827DB92
:101DB000019E4FF4806706F47046A6F50056B6FA09
:101DC00086F6394628467609FEF75CFF30B3A389CC
:101DD0001A4A43F08003AA62C4E90407A381206081
:101DE000002ED9D02846B4F90E1009F040FD002885
:101DF000D2D0A38923F0030343F00103A381CBE7EF
:101E0000A38913F0800F14BF40274FF48067284642
:101E100039460026FEF736FF0028D8D1B4F90C3039
:101E20009A05B9D4012123F0030304F1470243F0DA
:101E30000203C4E90421A3812260ADE7DD17000895
:101E400070B50C46B1F90E10164600291D4696B025
:101E500013DB6A4609F0FFFC00280EDB01994FF402
:101E6000806301F47041A1F50051B1FA81F10020C5
:101E700049092960336016B070BD0022B4F90C30F6
:101E80002A601B0604D540230020336016B070BDC5
:101E90004FF480630020336016B070BD5FFA81FCA0
:101EA000810710D00346511E2AB90AE09A07184646
:101EB0000AD0013905D3184613F8012B6245F5D134
:101EC000704700207047114603290CD80029F8D02C
:101ED0000346014401E08B42F3D0184613F8012B6E
:101EE0006245F8D1ECE7024610B54CEA0C2444EA0E
:101EF00004441046036804326340A3F1013E2EEA15
:101F0000030313F0803F04D1043903291046F0D8AD
:101F100051B10346014401E08B4205D0184613F845
:101F2000012B6245F8D110BD002010BD88420DD9AB
:101F30008B1883420AD900EB020CBAB1624613F83F
:101F400001CD994202F801CDF9D170470F2A0ED880
:101F5000034602F1FF3C4AB10CF1010C013B8C44F9
:101F600011F8012B614503F8012FF9D1704740EAC0
:101F700001039B074FD1A2F1100370B501F1200CB2
:101F800023F00F0501F1100E00F11004AC441B0901
:101F90005EF8105C0EF1100E44F8105C5EF81C5CEC
:101FA000103444F81C5C5EF8185C44F8185C5EF869
:101FB000145CE64544F8145CEAD1013312F00C0FCE
:101FC00001EB031102F00F0400EB031327D08E4640
:101FD000043C24F003064FEA940C1E441C1F5EF8D8
:101FE000045B44F8045FB442F9D10CF1010402F03F
:101FF000030203EB840301EB840102F1FF3C4AB1CD
:102000000CF1010C013B8C4411F8012B614503F8E4
:10201000012FF9D170BD034602F1FF3C9CE7224637
:10202000EBE700BF704700BF704700BFF8B514462C
:10203000F9B1CAB106460D4600F068F8A04202D3D5
:102040002F463846F8BD21463046FEF71BFE0746B0
:102050000028F6D022462946FEF79CFA304629464B
:10206000FEF7AAFD3846F8BD2746FEF7A5FD38461F
:10207000F8BD1146BDE8F840FEF704BE10B50C46A9
:10208000B1F90E1009F0CFFB002803DB636D0344A8
:10209000636510BDA38923F48053A38110BD00BFE5
:1020A000002070472DE9F0410C46B1F90C101F4695
:1020B000CB05054616460BD421F48051A1813B4641
:1020C00032462846B4F90E10BDE8F04109F0B2BB23
:1020D000B4F90E100223002209F0AAFBB4F90C1087
:1020E000EAE700BF10B50C46B1F90E1009F0A0FBED
:1020F000A389421C0EBF23F4805343F480536065D0
:10210000A38110BDB1F90E1009F096BB51F8040C73
:102110000028A0F10400BCBF0B58C018704700BFD6
:10212000002313B50446CDE9003338B100F0ACFA12
:1021300020B9082221466846FEF72CFA68460AF0C4
:10214000DFFE02B010BD10B5044640B100F09CFAAD
:1021500028B91E21601CBDE810400AF011BF1E21E5
:102160000020F8E7002313B5044600938DF80430EF
:1021700088B100F089FA70B963788DF80030A378DF
:102180008DF80130E3788DF8023063798DF80330F3
:1021900023798DF8043068460BF04FF802B010BD7B
:1021A000002313B50446ADF80630A0B100F06CFA78
:1021B00088B9A278637843EA0223ADF80630813B00
:1021C000022B0AD801220DF1060002FA03F3ADF842
:1021D00006300BF01EF802B010BD0DF106000BF03A
:1021E00007F8F8E738B504460D4600F041FA10B19B
:1021F000032000F043FA29462046BDE8384006F0A7
:10220000A2BC08B50AF06AFE0378022B03D10AF0DB
:102210006DFE007808BD0020FCE7000008B5054C05
:10222000236818780BF0B0F802F0CEFF052008F014
:1022300094FAF5E7B822002030B5114B8DB0114D5E
:1022400005AC18600FCD0FC495E8070084E80700BF
:102250004FF4E13007F002F90CAB13E907008DE809
:10226000070005AB0FCB0BF053F80023FF220093C0
:1022700041F2D001044B054808F03CFA0DB030BDE6
:10228000B822002054DD00081D220008E8110020BB
:1022900008B504F08FF904F0A3F906F05BFE04F032
:1022A00037FA06F0ABF8002006F048FDBDE808401C
:1022B000002006F05FBD08B50BF0AAFC0028FBD19A
:1022C00008BD704710B50446FFF7FBFF4CB100F0A6
:1022D000CFF970B100F0DEF9BDE81040032000F046
:1022E000CDB900F0C5F920B9BDE81040012000F0DB
:1022F000DFB910BDF0B50C461546064685B090BB5B
:10230000002936D104F038FB002000F0D1F900207C
:1023100000F0D4F9002000F0D7F900F0A9F920B1BD
:1023200000F0B8F9032000F0A9F92D4F3B681B78A5
:10233000A34200D13DB10AF0D1FD032303700AF09E
:10234000D5FD002303703A681470A4B1631ED9B29E
:102350000429947098BF5470052B0ED8DFE803F061
:10236000272C31363B190029CCD1012000F0DEF8B2
:10237000C8E70220FAE70BF0B1FA2A4621463046B8
:1023800001F0CEF82A462146304601F0D5FC05B0D2
:10239000F0BD182043F68D010323012702228DE8AA
:1023A0008B0028460F4B10490BF0AEFBE5E72846A3
:1023B0000E490BF096FAE0E728460C490BF0B9FA03
:1023C000DBE7284609490BF0DCFAD6E7284608493E
:1023D0000BF0FFFAD1E7284606490BF022FBCCE7C9
:1023E000B8220020E0DE0008FADE0008FEDE000869
:1023F0000FDF000820DF000807B50B4B0322196828
:1024000001A8FEF7C7F800209DF8043063F3070029
:102410009DF8053063F30F209DF8063063F31740F5
:1024200003B05DF804FB00BFB82200207047000035
:1024300010B5FFF7FBFF00F06DFA02F00BFE00F0A5
:102440008FF8012803D1BDE8104000F08FB800F0EC
:102450000FF960B9064C206806F063FEB0F57A7F8C
:1024600005D30BF0C5FB10B106F0A6FE206010BD31
:10247000E4110020FFF7DCBF70B5044660B106F040
:1024800033FC0D4B834215D0184606F027FCBDE8FF
:102490007040012006F0E8BD0AF020FD0378022B11
:1024A00008D1054D20466B6898472046AB68BDE8CB
:1024B0007040184770BD00BF640C002010B5014685
:1024C0008AB090B106F010FC154C844225D0012250
:1024D000144B1A7001F03EFA134807F0E5F9204654
:1024E0000AB0BDE8104006F0F9BB0F4B1B78042B77
:1024F0000BD12022CDE9000002A8FEF7C1F8684602
:1025000006F000FC02A806F005FC074808F0F9FEFA
:10251000054809F00FFB01F025FA0AB010BD00BF15
:10252000E80C00202D360020904900200B4B01289C
:1025300010B50446187002D0022807D010BD002044
:10254000FFF79AFF2046FFF7B9FFF7E70020FFF7F4
:10255000B5FF0120FFF790FFF0E700BF780C0020E7
:10256000014B1878704700BF780C002038B5124B2B
:10257000124D1B78124C052B19D12B6813B906F09C
:102580001BFE2860236813B906F016FE2060206841
:1025900006F0C7FD40F6B73398420BD900232360FD
:1025A00001F0D0F930B1BDE8384006F0CFBD0023CE
:1025B0002B60236038BD00BF90490020C02200205E
:1025C000BC22002010B50A4C2378052B0ED1B4F89C
:1025D0004C309B070AD506F08BFD38B1204608F039
:1025E0001FFFBDE81040034808F0B7B810BD00BF9A
:1025F00090490020A086010008B5064B186838B144
:1026000006F08FFD40F6B733984294BF00200120BA
:1026100008BD00BFC022002038B502F045FF0446C7
:1026200068B1084B1B78012B09D101F08BF930B14F
:10263000FFF7E2FF054610B1FFF7C4FF2C46204626
:1026400038BD00BF780C0020302310B583F311880B
:1026500000F0E6F9002484F3118872B600F030FB34
:1026600000F07CFA04F0ACFC84F3118862B610BD73
:10267000014B1878704700BFC5220020014B18702D
:10268000704700BFC5220020014B1878704700BF7B
:10269000C422002008B506F08FFD014B186008BD6C
:1026A000C8220020014B1870704700BFCC220020C8
:1026B000014B1870704700BFCF220020014B1870EB
:1026C000704700BFCE220020014B1870704700BF3A
:1026D000CD220020104BF7B51F6801F079FA0F4E9C
:1026E000054620B900243470204603B0F0BDFFF742
:1026F00083FEC0B218B90A4B1B78042BF2D0347891
:102700001CB100232C463370EEE7002FECD004F010
:1027100027F9B842E8D3F4E77C0C0020CF22002050
:10272000904900200120704710B5FFF7FBFF0C4BCC
:10273000044610B91870204610BD1C78002CFAD041
:1027400000221A700AF0D6FB0028F4D00AF0C6FB6B
:102750000378022BEFD1FFF79BFDFFF7ACFDEAE713
:10276000CE2200200120704710B5FFF7FBFF0C4B75
:10277000044610B91870204610BD1C78002CFAD001
:1027800000221A700AF0B6FB0028F4D00AF0A6FB6B
:102790000378022BEFD1FFF77BFDFFF78CFDEAE713
:1027A000CD22002010B586B001F01CFA044618B9FD
:1027B0000024204606B010BD0B4B186806F0B1FC93
:1027C0003128F5D9182200216846FDF759FF074B3B
:1027D0001B78002BEDD1182269460548FDF7A6FEAF
:1027E000B0FA80F46409E4E7C8220020C422002083
:1027F000F04400200120704708B5FFF7FBFF48B107
:10280000054B186806F08DFCC72803D9BDE80840C1
:102810000BF000BA002008BDC8220020012070473C
:1028200008B5FFF7FBFF38B1044B186806F079FCD8
:10283000C72894BF0020012008BD00BFC822002087
:10284000704708B506F082FCFFF7FAFF08BD0000EC
:1028500038B50AF04FFB70BB224B1B78022B0CD112
:102860000BF03CF84FF4C874FFF725FDFFF723FD8C
:10287000642007F072FF013CF8D101F079F80023E1
:10288000184D194C28782370FFF7DEFE2B78012BAA
:1028900017D0022B1FD05BB92278082A18D8012341
:1028A000934040F20512134212D002220F4B1A70CD
:1028B00001F0BCF938BD0AF011FB0378022BCFD12F
:1028C000CAE72278072AF0D8934013F0A80FECD07B
:1028D0000322064BEBE72278032A08BF1346034A7C
:1028E0001370E5E7C4220020CC220020C52200207E
:1028F00008B506F034FC01F0B5F904F0D1FB18225C
:1029000000210348FDF7BCFEBDE8084004F034B8E0
:10291000D444002010B5234C2378032B20D8DFE8C3
:1029200003F002202A33FFF7D5FE30B1FFF7B2FEE5
:1029300000221D4B1A7001232370FFF7F5FE28B10A
:10294000FFF7A8FE0123184A23701370FFF70CFF4E
:1029500030B1FFF79FFE0222134B1A700123237040
:1029600010BDFFF71FFF0028FAD0FFF793FEFFF717
:1029700068FF0223F3E7FFF73FFF0028F0D0FFF7DF
:1029800089FEFFF765FFEBE7FFF74AFF0028E7D076
:10299000FFF780FEFFF7ACFF0023034A237013709C
:1029A000DEE700BFC5220020C4220020202938B560
:1029B00005460C4610D1FFF7D3FD012806D122466B
:1029C0002946BDE83840022006F0B4BF214628461B
:1029D000BDE838400BF0EEB838BD000010B5C4B209
:1029E0000B2C0CBF02200120FFF75CFE204601F0FB
:1029F0005BF94FF0FF32014B5A6110BD00180040E7
:102A00000023054A0549C2E900130133102B02F1E6
:102A10000802F8D1704700BFA8450020DD29000852
:102A20002DE9F843484B05469A6C42F4C0629A641B
:102A30009A6CD3F8902042F4C062C3F89020D3F887
:102A4000902022F4C062C3F89020D3F89030FFF7B2
:102A5000D7FF00284FD112264FF001083B4F57F8FF
:102A6000041B4A1C0DD021F00F0901F00F0108FAD8
:102A700001F4214605224846240409F079F9C9F8F1
:102A80001840013E16F0FF06E9D1062401274FF059
:102A900030082F4E56F8040B431C28D000F00F01CD
:102AA000202207FA01F120F00F0009F061F900BFC0
:102AB00000BF00BF00BF00BF00BF00BF00BF00BF1E
:102AC00000BF00BF00BF00BF00BF00BF00BF00BF0E
:102AD00000BF88F3118856F8040C032200F00F01A0
:102AE00020F00F0009F064F9002383F31188013C02
:102AF00014F0FF04CED120224FF40061154809F0F4
:102B000037F900BF00BF00BF00BF00BF00BF00BF5C
:102B100000BF00BF00BF00BF00BF00BF00BF00BFBD
:102B200000BF00BF00BF302383F3118802220B21B6
:102B3000084809F03DF9002383F31188284601F085
:102B4000C5F8BDE8F88300BF000C014034DF000881
:102B5000D8DF0008000800407047000010B51A4C8C
:102B600006F02AFFA36C40F2A23243F4C063A364D0
:102B70004FF400611548A36C09F0FAF8A36C43F414
:102B80008043A364A36CE36C43F00803E364E36C49
:102B9000A36C43F48053A364A36CE36C43F0100371
:102BA000E364E36CA36C43F00203A364A36CA36C23
:102BB00043F00803A364A36CA36C43F01003A36465
:102BC000A36CFFF7C9FF10BD000C014000080040D6
:102BD0004FF0E02238B51369304923F00103136147
:102BE00003232F4A012493620C23D3622D4B2E48DA
:102BF000C1F8003400238360C4602C48C1F800048D
:102C0000A1F598418B672A499362D362A2F5684285
:102C1000516100219A0002F1604202F56142D2F84E
:102C20000001CDB2012D94BF002000F0010008B1D9
:102C3000C2F8804101312029F1D10133082BE8D1BC
:102C40001C4C636843F00073636009F063F8144B35
:102C50001A6802F009021A601A6842F46C3242F0F3
:102C600004021A6040F2B3321A62134B43F00103BC
:102C70009847236943F00403236130BF0F4B43F0AF
:102C8000010398474FF0E022236923F004032361F6
:102C9000136943F00103136138BD00BF00500140C8
:102CA0000000014014000003000C0140100000036C
:102CB000FFFF070000ED00E0B0DF00087CDF000848
:102CC000FFF786BF2DE9F04103254FF001080B4FB8
:102CD00057F8044B012224F00F0604F00F0408FA01
:102CE00004F421463046013D09F042F8240415F071
:102CF000FF05B461ECD1BDE8F08100BFF0DF000852
:102D00004FF0804340229A6180229A614FF4807292
:102D1000C3F8182870474FF080434FF480029A613F
:102D20004FF400029A614FF08072C3F81828704780
:102D300038B50446FFF7EFFF042C234628BF0423D1
:102D400041F27B42C3EB83339BB2934214D80922F6
:102D5000B3FBF2F3114A124D13802B782BB91149B2
:102D6000114808F04EF901232B7094B1BDE83840AA
:102D70000F210D4808F057B903F523530B4A36339A
:102D80001B02B3FBF2F303FB03F25343C3F30F2322
:102D9000E0E70548BDE8384008F053B9D4220020E8
:102DA000D62200207CE0000828460020F5280100FB
:102DB0007047000010B504F0E9FD1A4A01021388BB
:102DC00040000133B3FBF1F401FB143380B29BB23A
:102DD0001380B3FBF0F3144A03F07F03D45C04F0D8
:102DE00099FD41F27B42A40100FB04F39BB29342A4
:102DF00005D80920B3FBF0F30C4A138010BD03F58E
:102E000023530B4A36331B02B3FBF2F303FB03F2EB
:102E100053431B0AB3F5803F0CBF4FF6FF739BB2C1
:102E2000EAE700BFD2220020FCDF0008D422002005
:102E3000F52801000F4A10B513880F4C01339BB2DF
:102E4000138013F0FF030CD10C4B1B780BB1FFF771
:102E5000B1FF2388B3F5807F0BD9BDE81040FFF7A1
:102E60004FBF2288B3EB122F03D1BDE81040FFF70C
:102E700052BF10BDD8220020D4220020D022002032
:102E80000022034B1A800122024B1A70704700BFC8
:102E9000D2220020D022002008B5FFF713FF04F053
:102EA00039FDFFF745FF04F069FD18B1BDE80840A2
:102EB000FFF7E6BF08BD00000022014B1A70704703
:102EC000D02200200F4B10B51A78CAB901220E4C3F
:102ED0001A70206040F2A2324FF400714FF080402F
:102EE00008F046FF4FF480614FF0804040F2A2327C
:102EF00008F03EFF2146BDE81040044808F030B914
:102F000010BD00BFDA220020800C0020CC4700203A
:102F10004FF0FF3108B5024807F095FFC0B208BD79
:102F2000D84700200A464FF0FF330146014808F019
:102F30002FB800BFFC47002008B5034808F035F95A
:102F400080F00100C0B208BDCC47002010B5084B8E
:102F50004218904207D1064889B2FFF7E3FF0120EB
:102F6000044B187010BD10F8014B03F8014BF0E74B
:102F7000C8440020E822002010B504464FF4165043
:102F8000FFF7A0FF014B1C6010BD00BFE022002036
:102F900037B5264C264DFFF7CFFF002835D0FFF779
:102FA000B7FF2368012B10D0022B12D0ABB9A0F1D0
:102FB0006103DBB21F2BEED81E4A22FA03F3DB07B4
:102FC000E9D5012328702360E5E7022368702360B8
:102FD000E1E7652804D00A2802D000232360DAE75D
:102FE00003232360124B1A789870662A0FD0802A28
:102FF00012D0612A07D15B780D2B04D10A2802D1A7
:1030000000220D4B1A700023236003B030BD0B4A21
:1030100012680AB1587890470322094901A8FDF7C0
:10302000B9FA032101A8FFF77DFFECE7DC220020BD
:10303000CB44002021000080E8220020E022002074
:103040008CE00008032901D8FFF780BF00207047FB
:103050000B4B10B51B780B4C13B906F0ADF8206084
:10306000206840B906F0A8F8032120600648BDE8B2
:103070001040FFF7E7BF06F054F83128F2D810BD32
:10308000E8220020E4220020C844002008B5FFF711
:103090007FFFBDE80840FFF7DBBF000037B5032521
:1030A00004462A46074901A8FDF774FAF02C28BF08
:1030B000F024294601A88DF80540FFF747FF03B02B
:1030C00030BD00BF70DD000813B50324054922465A
:1030D00001A8FDF75FFA214601A8FFF737FF02B00C
:1030E00010BD00BF70DD000813B50324054922465A
:1030F00001A8FDF74FFA214601A8FFF727FF02B00C
:1031000010BD00BF90E0000870B5044606F054F80A
:103110000546064E337823B1284606F002F8A04251
:1031200000D970BDFFF7B2FFF4E700BFE82200202E
:103130000E4A431CFF2830B5DBB2144608BFFF23FC
:103140000121657DC8B29D420ED001310B2904F1E9
:103150001404F6D10123517DD8B229B101330B2BD0
:1031600002F11402F7D1002030BD00BFEC22002094
:1031700008B50B46FF2818BF00F1FF30114618BFF5
:10318000C0B21A4601F016F808BD000038B5044672
:103190000D46FFF7CDFF68B11422074BFF2C02FB51
:1031A00000304FF000031CBF0134E4B2447045749A
:1031B0000374012038BD00BFEC2200202DE9F0414E
:1031C0000446884616461F46FFF7B2FF90B1142208
:1031D0005043094BFF2C03EB00051F544FF0000335
:1031E0004FF001001CBF0134E4B26C7085F802801E
:1031F000AE602B74BDE8F081EC2200202DE9F04197
:103200000446884617461E46FFF792FFA0B11422D7
:1032100050430A4B9DF818201D181A54079B012093
:10322000EB600023FF2C1CBF0134E4B26C7085F806
:103230001180AF70AE602B74BDE8F081EC220020ED
:103240002DE9F843002502272E464FF001082E4CA9
:10325000607880B394F81090B9F1010F33D0B9F1D0
:10326000020F0DD0B9F1000F25D1A3781BB30122B5
:10327000617CFFF77DFF05F09FFF606027741AE017
:103280000122617CFFF774FF6068A0B105F049FF7F
:10329000A36898420FD305F08FFF2378606043B195
:1032A00084F81090A378FBB9E3681BBB26746670A2
:1032B00001E084F8108001350A2D04F11404C7D10F
:1032C0000120BDE8F8830022617CFFF751FF6068B0
:1032D0000028F0D005F025FFA3689842EBD305F055
:1032E0006BFF27746060DDE7013BDBB2A370002B4E
:1032F000E1D1D9E76078FF281CBF00F1FF30C0B2F0
:1033000098470028D2D0B9E7EC220020014B18786A
:10331000704700BFC8230020014B1860704700BFF2
:10332000CC230020F0B5044685B0062900F2B18018
:10333000DFE801F0040A6154549B9B000024564BC3
:103340001C60204605B0F0BD534E544F3568002D2B
:1033500030D105F031FF42F21073013C30603B6028
:10336000032C00F29680DFE804F0020A121D4C4B99
:1033700000950193FA230122FF2110460EE0484BED
:1033800000950193FA230122FF21022006E0444B1D
:1033900000950193FA230122FF210320FFF72EFF5E
:1033A0000124CEE73E4B00950193FA230122FF2131
:1033B0000420F3E7284605F0B4FE3B68984254D257
:1033C000FFF7CEF80228EBD109F088FD0378022B35
:1033D000E6D1002303223360324B1A70002340F6FB
:1033E000B83201212046FFF7E9FE00232A4A136084
:1033F0002C4A1370D4E7284E35680DBB05F0DCFE6F
:10340000013C3060032C44D8DFE804F002080E14BD
:10341000234B009501934FF4FA73ACE7204B0095D2
:1034200001934FF4FA73AEE71D4B009501934FF4EF
:10343000FA73B0E71A4B009501934FF4FA73B5E7AE
:10344000284605F06EFE4EF65F2398420DD8FFF732
:1034500087F80228A4D109F041FD0378022B9FD1FF
:103460000023042233600F4BB7E700230A4A13609E
:103470000C4A1370FEF7C0FFC0B238B900F062FA10
:10348000044618B90120FFF719F95AE70120FFF7A0
:103490000FF9002455E700BFCC230020880C002042
:1034A000A9340008C823002008B5024B1978FFF79B
:1034B00039FF08BDC823002073B500240D46064619
:1034C000234622462146019400940120FFF796FEF0
:1034D000234622462146019400940220FFF78EFEE7
:1034E000234622462146019400940320FFF786FEDE
:1034F000234622462146019400940420FFF77EFED5
:10350000054B29461C60054B30461D70FFF70AFF2E
:10351000012002B070BD00BFCC230020C8230020D2
:1035200038B50D461446FFF71BF8022827D109F0DD
:10353000D5FC0378022B22D0691E052925D8DFE8A7
:1035400001F0030C122424182CB102210120BDE843
:103550003840FFF7B1BF0121F8E714B10221022082
:10356000F5E70121FBE714B102210320EFE7012178
:10357000FBE714B102210420E9E70121FBE7FEF794
:10358000EFFF012801D10021E1E738BD07B58DF833
:1035900006100421B3238DF805000DEB01008DF812
:1035A00004308DF8072009F07BFC03B05DF804FBC4
:1035B000B42307B5022101A8ADF8043009F070FC6E
:1035C00003B05DF804FB000000231946034A0133F1
:1035D000092B516002F8081BF9D17047D023002055
:1035E00008B5086840F480330B6080B2012100F018
:1035F0004DFE002008BD00002DE9F04107461546AC
:103600000846224CBAB1002304EBC30292899742C8
:1036100003D100252846BDE8F0810133082BF3D102
:10362000012604EBC608D8F80430F2007BB101365D
:10363000092EF6D1EDE7012504EBC508B8F80430F2
:10364000EE009F420FD00135092DF5D1E1E704329C
:103650000F49224404F03CFB0028DAD0C8F804707B
:1036600004F83600D6E714F8350004F03FFBD8F82C
:103670000400C30303D5002180B200F007FE00233D
:10368000264404F8353073600125C3E7D0230020B9
:10369000E135000808B520224FF40071054808F014
:1036A00067FBBDE8084020224FF48041024808F043
:1036B0005FBB00BF000400400008004037B504466F
:1036C0002E4D002843D005F077FD2860FEF794FECC
:1036D000C0F307238DF80530C0F307438DF806309B
:1036E000274B8DF804001969C2B28D0503D5254911
:1036F0000969490433D51B699D0503D5214B1B6915
:1037000059042ED41E4B1B699B052CD41D4B1B69E1
:1037100013F4804F0CBF00230223511E052924D926
:10372000002A0CBF03200220174A14B911789942CD
:1037300002D11C1A18BF0124022B1370134A16D091
:10374000032B16D0012B16D10423137004E0286834
:1037500005F0E7FC3228B6D8204603B030BD03237D
:10376000DBE70123D9E70023D7E70120DCE70523C6
:10377000EBE70123E9E70023E7E700BF1C24002073
:1037800000040040000800401824002019240020F4
:1037900030B587B0FFF792FF08B9002415E0184D47
:1037A000287801F00BFC04460028F6D02B78013B6A
:1037B000032BF2D8DFE803F0020C161BFEF71CFE09
:1037C00000221146C0B2FEF795FD204607B030BD7D
:1037D000FEF712FEC5B2FEF70FFE0022C0F307216E
:1037E0002846F0E7FEF708FE00220621EAE7FEF78A
:1037F00003FEC5B2FEF700FE0022C0F30741EFE76B
:1038000019240020014B1878704700BF19240020AC
:1038100010B5114B1C78012C18D1022221461A70C8
:10382000FF2023464FF4FA72FFF7C8FC20460B49ED
:103830000AF057F8204609490AF07BF82046074964
:103840000AF09FF802F0E2FF204610BD022C01D1E1
:1038500005F026FD0020F8E732240020FEDE0008F7
:10386000044A0548136803F0E0031843106002F0AF
:10387000FABF00BFD04400200B00010108B502F0E0
:10388000EFFF084B186058B9FFF7EAFF064B1A78AC
:1038900042F080021A701888BDE8084002F0DCBFD0
:1038A00008BD00BFD0440020EC44002010B5104CEF
:1038B0004FF481724021204608F05AFA00220D4848
:1038C000114607F0E3FB82224FF480714FF08040F5
:1038D00008F04EFA00220848114607F0D7FB0122F3
:1038E0008021204608F044FA4FF40003A36110BD84
:1038F00000040040384600205446002010B5002146
:103900000D4807F0D3FB00210C4807F0CFFB402205
:103910000B4C1146204608F02BFA40224FF48071E0
:103920004FF0804008F024FA2046BDE810404022C5
:10393000802108F01DBA00BF384600205446002000
:1039400000040040024B1869C0F3C030704700BF4C
:10395000000800404FF40032014B9A61704700BFED
:10396000000400400222014B9A61704700040040AD
:1039700020224FF400714FF0804008F0F9B90000A8
:103980001FB54FF48023384804218361012208F0D9
:10399000EFF9FFF7B3FF354B1B78190706D50A205F
:1039A000FFF77CFB4FF47A70FFF7AEFBFEF724FDC8
:1039B000C0F307238DF804008DF80530C0F30743EA
:1039C000C0B28DF8063010B10222294B9A61FEF781
:1039D00013FDC0F307238DF808008DF80930C0F3FC
:1039E0000743C0B28DF80A3068B9FEF74DFE0128D2
:1039F00003D0204B1B691A0405D40020FEF75EFD9E
:103A00000120FEF75BFEFEF7F7FCC0F307238DF8FD
:103A10000C008DF80D30C0F30743C0B28DF80E30A6
:103A200018B9144B1B691B0418D420224FF4806171
:103A30004FF0804008F09CF900BF00BF00BF00BFFE
:103A400000BF00BF00BF00BF00BF00BF00BF00BF7E
:103A500000BF00BF00BF00BF00BF00BF05B05DF8E2
:103A600004EB05F043BB00BF000C0040D044002035
:103A700000040040000800401FB540F2A2324FF49D
:103A800000714FF0804008F073F940F2A2324FF419
:103A900080614FF0804008F06BF9FFF707FF1C4B87
:103AA0001B781B0701D5FFF70FFB1A4B1B685BB98F
:103AB000194B1B78012B07D0184B1B7813F0010012
:103AC00018BFD808FFF734F9FFF77EFDFEF794FC26
:103AD000C0B248B912480378012B05D14FF4003227
:103AE000104B9A6105F0E0FEFEF786FCC4B2FEF7CB
:103AF00083FC0022C1B22046FEF7FCFB20220421F9
:103B0000094808F035F904B0BDE8104005F0EFBAF7
:103B1000D0440020542400206424002020450020AC
:103B20009049002000040040000C004010B5FFF751
:103B3000ADFA224B224C1B6913F4007F32D1214B8A
:103B40001B6958042ED5236813B905F035FB206096
:103B5000206805F0E6FA092818D905F02DFB174B67
:103B600020601B69990511D4164C23695A040DD5A0
:103B7000FEF77EFD50B903F099FF23691B0402D4C0
:103B80000120FEF79BFD01220F4B1A700F4B1868A6
:103B900090B105F0C6FAB0F5FA7F0DD3BDE810403C
:103BA00001F00EBD05F008FB074B20601B78012BD0
:103BB000ECD105F075FBE9E710BD00BF0004004043
:103BC0005824002000080040642400203C240020E9
:103BD00007B5FEF711FCC0B2003818BF012003B0D2
:103BE0005DF804FB0E4A08B5136913F4004FC3F3E4
:103BF000C0310C4B0AD0022119700B4909698905A3
:103C000007D5002003F052FF002001E001201970C9
:103C100008BD1269520444BF01221A70F1E700BFC7
:103C200000080040642400200004004008B5FEF7AE
:103C30002BFD012806D1FEF71BFD032802D105F05C
:103C40002FFBFEE7FEF714FD032809D1BDE808406D
:103C500040F2A2324FF400714FF0804008F088B873
:103C600008BD000000230D4A13B50D4C13700D4A1A
:103C70002078137001F036FD48B948F2A7030221FD
:103C800001A8ADF8043009F00BF902B010BD20789E
:103C900001F028FD0128F8D1EFE700BF64240020DF
:103CA0007224002037240020093806280CD8DFE8C9
:103CB00000F007090B0B0B0704000320FEF7F2BC12
:103CC0000720FBE70120F9E77047000070B50446C4
:103CD000302585F3118801220F21144808F068F877
:103CE000002686F3118885F31188012209211048E6
:103CF00008F05EF886F3118885F3118801220E2101
:103D00000A4808F055F886F311886CB9094B1B78FE
:103D10001B0709D585F3118802220A214FF0804044
:103D200008F046F884F3118870BD00BF0008004019
:103D300000040040D04400200C4B07B5186802F086
:103D400092FDFEF759FBC0B2062805D1FF2003B053
:103D50005DF804EB09F0A6BAFEF74EFBC0B208B15D
:103D60009E20F4E703B05DF804FB00BFD0440020C0
:103D700047F60D6300B598428FB00FD8B0F5FC4FF1
:103D80000ED847F2967398426ED047F297739842D6
:103D90007ED047F28473984200F0A380012024E093
:103DA000A0F5FC4001380C28F8D801A353F820F006
:103DB000E53D0008193E0008413E0008B93E0008F4
:103DC0009D3D00089D3D00089D3D00089D3D00086B
:103DD0009D3D00089D3D00089D3D00089D3D00085B
:103DE0000B3F00084B791BB900200FB05DF804FBB6
:103DF000FEF702FBC0B20128F6D0FFF703FD04284E
:103E000002D010F0FD0FEFD1FEF7F6FA00220121EB
:103E1000C0B2FEF76FFAE7E74B79002BE4D0FEF76C
:103E2000EBFAC0B20228DFD0FFF7ECFC042802D086
:103E300010F0FD0FD8D1FEF7DFFA00220221E7E7EC
:103E40004B79002BD0D0FEF7D7FAC0B20328CBD0E5
:103E5000FFF7D8FC042802D010F0FD0FC4D1FEF704
:103E6000CBFA00220321D3E74B79002BBCD0FEF71D
:103E7000C3FAC0B20428B7D0FFF7C4FC042802D0AC
:103E800010F0FD0FB0D1FEF7B7FA00220421BFE712
:103E90004B79002BA8D0FEF7AFFAC0B20528A3D00B
:103EA000FFF7B0FC042802D010F0FD0F9CD1FEF704
:103EB000A3FA00220521ABE74B79002B94D0FEF743
:103EC0009BFAC0B206288FD0FFF79CFCC31EDBB262
:103ED000012B01D9002887D1FEF78EFA0022062196
:103EE00096E74B79002B3FF47FAFFEF785FAC0B21F
:103EF00000283FF479AFFFF785FC01283FF674AF47
:103F0000FEF77AFA0022114682E74B79024A1370D3
:103F1000024A137068E700BF382400205C240020A8
:103F20000F4A10B51388044605339BB2B3F5FF7FE3
:103F300088BF0523138013881178DB0544BFC9436C
:103F4000C9B2C1EB0121C1F30721FFF71FF901231A
:103F50002046BDE8104019221946FFF72FB900BFCF
:103F6000222400202DE9F047054608F0BBFF824BD4
:103F700090F800901B78814C6BB3814B1B7853B346
:103F8000236813B905F018F9206002F0EFFC7D4EAC
:103F90003368984205D002F0E9FC306005F00CF976
:103FA0002060002003F082FDFF212846FFF7EEF895
:103FB0000023FA2201212846FFF700F90022724B64
:103FC0001A800422714B1A7005F0F6F8FFF7A4F975
:103FD0000120BDE8F0876E4B6E491A696E4BC2F343
:103FE000C0321A706D4B6E4E1B69C3F380030B70A9
:103FF000002A40F0B280A9F106030E2B3260DFF8F0
:104000008C81614E674F5FD9B9F1050F00F2A08036
:10401000236813B905F0D0F8206002F0A7FCDFF8A0
:1040200088A1DAF80030984206D002F09FFCCAF866
:10403000000005F0C1F82060206805F072F84EF627
:104040006023984207D9B9F1030F04D80023012057
:104050002360FEF739FB96212846FFF797F80023E7
:10406000FA2201212846FFF7A9F800233380042310
:104070005BE0336813B905F09FF83060306805F0F5
:1040800050F8B0F5FA6F19D3FF212846FFF77EF8F4
:1040900001234FF4967219462846FFF78FF8002245
:1040A000394B1A800122394B1A703E4B1A78662A16
:1040B00007D06620187009F0F5F802E02846FFF7EF
:1040C0002FFF0023236083E7384933880878B8BB83
:1040D00002339BB2952B338003D901230B709623B7
:1040E000338031782368C1EB0121C1F3072613B96E
:1040F00005F062F8206002F039FCDFF8B490D9F8DE
:104100000030984206D002F031FCC9F8000005F0FA
:1041100053F8206031462846FFF738F8012319226A
:1041200019462846FFF74AF8032388F800303B7801
:10413000652B3FF44DAF6520387009F0B3F847E7C1
:10414000023B9BB2022B33809CBF0A703280C8E7CF
:104150002260328088F80020E9E7002B89D12846C8
:104160003360FFF7DDFE0222084B1A700D4B1A7800
:10417000642AA6D064209DE7362400202C24002049
:104180003524002048240020222400202024002060
:1041900000080040282400208C0C0020000C004067
:1041A0002424002037240020402400203124002033
:1041B00044240020042870B50C46154609D868B17F
:1041C0002C4B1A782C4B002A3BD04FF400029A61FA
:1041D0000CE0FF283DD00124204670BD274B1B7802
:1041E00033B100221146264806F050FF0024F3E7C1
:1041F000244E337843B900221146214806F046FF89
:10420000002221481146EFE7FEF732FA18B1FEF717
:104210002FFA0128EFD13378013B032BE6D8DFE8F2
:1042200003F002020707002CE5D02A460021E4E74C
:104230002CB12A460021144806F028FFD1E70022BD
:10424000F8E711B180219961D0E74FF400029A613B
:10425000C2E739B15F2200210B4806F017FFFEF7D5
:104260004FFDC3E70A46084806F010FFFEF753FD6E
:10427000B2E700BF64240020000400403224002084
:1042800038460020202400205446002047F61163C1
:1042900010B5984290B00ED8B0F5FC4F0ED847F24A
:1042A000977398425DD047F60343984267D047F230
:1042B000967398424ED0012010B010BDA0F5FC407E
:1042C00001381028F7D801A353F820F01143000853
:1042D0002F4300084743000871430008B742000815
:1042E000B7420008B7420008B7420008B7420008CA
:1042F000B7420008B7420008B7420008B7420008BA
:10430000B7420008A7430008B7420008BB430008B3
:104310000029D0D0FEF770F8C4B2012CCBD1FEF743
:104320006BF822462146C0B2FDF7E4FFC3E700293F
:10433000C1D0FEF761F8C4B2022CBCD1FEF75CF824
:1043400001222146EFE70029B5D0FEF755F8C4B2A7
:10435000032CF2E70029AED0FEF74EF8C4B2042CCD
:10436000EBE70029A7D0FEF747F8C4B2052CE4E735
:104370000029A0D0FEF740F8C4B2062CDDE70029E2
:1043800099D001220024FF211E4B08461A701E4BB3
:104390000222019300944FF4FA73FEF72FFF204698
:1043A00003F084FB87E7002985D0622008F07AFFBC
:1043B000FEF722F801220221B5E700293FF47BAF86
:1043C000124C237883F00802C2F3C00262F3C303E5
:1043D0002370206802F047FA23781B0708D5FEF700
:1043E00073FE4FF47A70FEF78FFEFEF76DFE62E704
:1043F000FEF77AFE4FF47A70FEF786FEFEF774FE43
:1044000059E700BF3224002011380008D0440020B2
:10441000F7B506460D46FEF779FF0138C0B2012810
:1044200003D804F0C9FEFEF777FFC84F3B7853B1BD
:10443000C74B1B783BB1A6F11E03022B03D9002406
:10444000204603B0F0BDC34C237843B1FEF710F90A
:104450000028F4D0002303202370FEF70FF9BE4B91
:104460001B699A0503D4BD4B1B695B04E7D447F66F
:1044700011639E420CBF4FF4FA6140F6B8313046EA
:104480006A79FFF7B9F82946304601F013F8002899
:10449000D5D029463046FFF76BFC04460028CED025
:1044A000BE2E00F2DE80A72E00F28E80462E00F295
:1044B000C1801D2EC4D91E3E282EC1D801A353F899
:1044C00026F000BF4B4A00087D4A0008AD4A0008AC
:1044D00041440008414400084144000841440008A8
:1044E0004144000841440008414400084144000898
:1044F0004144000841440008414400084144000888
:104500004144000841440008414400084144000877
:104510004144000841440008414400084144000867
:104520004144000841440008414400084144000857
:10453000414400080F4700082D4700086D47000858
:10454000E347000801480008414800088148000886
:104550009F480008BD480008DB480008F9480008EB
:1045600017490008BB4D0008A6F5FC46122E3FF681
:1045700067AF01A353F826F0EB460008414400085A
:1045800041440008414400084144000841440008F7
:1045900041440008414400084144000841440008E7
:1045A00041440008FB4C0008914C000841440008BD
:1045B000574B0008054E00083D4D0008C545000852
:1045C000D74B000800243BE7A83E162E3FF638AF35
:1045D00001A353F826F000BFF14900082D4A000856
:1045E0000F4A0008CB4900088F49000841440008E1
:1045F000AD49000841440008414400084144000816
:104600004144000841440008714900084144000841
:104610004144000841440008414400084144000866
:10462000414400084144000841440008534900083F
:1046300035490008652E7FF403AF494D287801F015
:1046400051F802283FF4FCAE287801F04BF803281B
:104650003FF4F6AE434B1C7884F01004C4F300140E
:10466000EEE647F612639E423FF6EAAEB6F5FC4F21
:10467000BFF47AAF47F603039E4200F04F8229D879
:10468000B6F5A44F00F0DB8245F202239E427FF490
:10469000D7AE6B79002B00F0E381314C207801F02C
:1046A00021F8022800F0DC81207801F01BF80328B3
:1046B00000F0D681022000F061FF002001F01BFC19
:1046C00048F2A713022101A8ADF80430002408F035
:1046D000E7FBB5E647F604039E4200F0FF8147F68C
:1046E00003439E4208BF0024AAE66B79002B3FF4E7
:1046F000A6AE1D4A0024137883F01001C1F3001107
:1047000061F304131370106802F0ADF898E6164BCD
:104710001B78DF067FF594AE6C79BE201CB100F0EB
:104720007DFE00248CE600F08FFE89E60E4B1B78A0
:10473000DE067FF585AE6C79BD201CB100F06EFE03
:1047400000247DE600F080FE7AE600BF36240020DB
:1047500035240020642400200004004000080040AC
:1047600072240020EC440020D04400209E4B1B7893
:10477000D8067FF565AE9D4C6B792078C3B100F00B
:10478000B1FF022807D1E32000F048FE2B2000F003
:1047900045FE002454E6207800F0A4FF0328F2D060
:1047A000E02000F03BFE522000F038FE002447E6F7
:1047B00000F098FF022807D1E32000F045FE2B20EF
:1047C00000F042FE00243BE6207800F08BFF032837
:1047D000F2D0E02000F038FE522000F035FE002438
:1047E0002EE6814B1B78D9067FF52AAE6C79B42072
:1047F0001CB100F013FE002422E600F025FE1FE6A7
:10480000794E3378DA067FF51BAE6B79002B3FF4D7
:1048100016AE03F055F8C3083FF411AE337803F039
:104820000603022B02D0042B7FF409AE03F048F8F4
:10483000C0F3C70003F03AF9002403F0C5F8FFE520
:10484000694E3378DB067FF5FBAD6B79002B3FF4C7
:10485000F6AD03F05FF804283FF4F1AD337803F0D0
:104860000603022B02D0042B7FF4E9AD03F028F8F5
:10487000C0F3C70003F01AF9002403F08DF8DFE558
:10488000594B1B78DF067FF5DBAD6C79AC201CB192
:1048900000F0C4FD0024D3E500F0D6FDD0E5524B76
:1048A0001B78DE067FF5CCAD6C79AE201CB100F034
:1048B000B5FD0024C4E500F0C7FDC1E54A4B1B78F7
:1048C000D8067FF5BDAD6C79AB201CB100F0A6FD1C
:1048D0000024B5E500F0B8FDB2E5434B1B78D906DE
:1048E0007FF5AEAD6C79A8201CB100F097FD0024D7
:1048F000A6E500F0A9FDA3E53B4B1B78DA067FF5A2
:104900009FAD6C79AA201CB100F088FD002497E5CA
:1049100000F09AFD94E5344B1B78DB067FF590ADF3
:104920006C79A9201CB100F079FD002488E500F025
:104930008BFD85E52C4B1B78DF067FF581AD6C790F
:104940003A201CB100F06AFD002479E500F07CFDFE
:1049500076E5254B1B78DE067FF572AD6C793B2042
:104960001CB100F05BFD00246AE500F06DFD67E519
:104970001D4B1B78D8067FF563AD6C793D201CB1CB
:1049800000F04CFD00245BE500F05EFD58E5164BA1
:104990001B78D9067FF554AD6C7940201CB100F02E
:1049A0003DFD00244CE500F04FFD49E50E4B1B7822
:1049B000DA067FF545AD6C7941201CB100F02EFD83
:1049C00000243DE500F040FD3AE5074B1B78DB068F
:1049D0007FF536AD6C7942201CB100F01FFD00243C
:1049E0002EE500F031FD2BE5D0440020722400209C
:1049F000A44B1B78DF067FF523AD6C7943201CB1F7
:104A000000F00CFD00241BE500F01EFD18E59D4B99
:104A10001B78DE067FF514AD6C7944201CB100F0E4
:104A2000FDFC00240CE500F00FFD09E5954B1B781B
:104A3000D8067FF505AD6C7945201CB100F0EEFC81
:104A40000024FDE400F000FDFAE43B78002B3FF485
:104A5000F7AC8D4A1278002A00F0DE816B790BB931
:104A60000024EDE4FEF7A4FD602008F01BFC012209
:104A700005210020FEF78AFD0024E1E43B78002BAD
:104A80003FF4DEAC804A1278002A00F0C8816B79CE
:104A9000002BE5D0FEF78CFD602008F003FC01221E
:104AA00005211320FEF772FD0024C9E43B78002B9A
:104AB0003FF4C6AC744A1278002A00F0B3816B79D7
:104AC000002BCDD0FEF774FD602008F0EBFB012237
:104AD00005212720FEF75AFD0024B1E4694E337802
:104AE000D90609D56C793F201CB100F097FC002451
:104AF000A6E400F0A9FCA3E402F00CFF0428AFD068
:104B0000337803F00603022B01D0042BA8D102F066
:104B1000D7FEC0F3C70002F0C9FF91E4594E3378C5
:104B2000DA0609D56C793E201CB100F077FC002430
:104B300086E400F089FC83E402F0C2FEC0108FD04E
:104B4000337803F00603022B01D0042B88D1C0B2C6
:104B500002F0ACFF74E46B79002B81D00322494C46
:104B60002178C1F341030133B3FBF2F202EB4202BD
:104B70009B1A0A4663F342022270206801F073FE1A
:104B800002F09EFE2378C510C3F34102012A18D01B
:104B9000022A04D07AB902F04BFF002450E415B980
:104BA000022002F099FF02F0CDFE002402F0B8FED0
:104BB00002F024FF44E46FF342032370206801F005
:104BC00052FE15B9022002F087FF02F0BBFE00245E
:104BD00002F014FF34E46B79002B3FF441AF294C11
:104BE0002378227813F0060F0FBF0223C3F341038B
:104BF000033303F0030363F342022270206801F0E1
:104C000032FE02F05DFE2378C510C3F34102012A93
:104C100009D0022AC3D0002ABDD06FF3420323700B
:104C2000206801F020FE15B9022002F055FF02F0C5
:104C300089FE002402F0FCFE02F0E0FE00E46B7945
:104C4000002B3FF40DAF114C207800F04BFD0228F3
:104C500010D1002000F092FC002001F04CF948F245
:104C6000A703022101A8ADF80430002408F018F9C8
:104C7000FFF7E6BB207800F035FD03287FF4F0AEA7
:104C8000E7E700BFD0440020352400207224002034
:104C9000664C207800F026FD02281CD0207800F019
:104CA00021FD032817D06C79E02054B100F0B6FB49
:104CB000E32000F0B3FB142000F0B0FB0024FFF76A
:104CC000BFBB00F0C1FBE32000F0BEFB142000F0EE
:104CD000BBFBFFF7B5BB6C79E3203CB100F09EFB5A
:104CE0000F2000F09BFB0024FFF7AABB00F0ACFBF9
:104CF0000F2000F0A9FBFFF7A3BB4D4B6C791B788D
:104D0000DB060AD53C2024B100F088FB0024FFF725
:104D100097BB00F099FBFFF793BB444D287834B163
:104D200000F0E0FC02283FF42EAD287834E500F0D6
:104D3000D9FC02283FF440AD287846E53B4C20786A
:104D400000F0D0FC022809D16C7924BBE32000F0EC
:104D5000B9FD062000F0B6FDFFF772BB207800F029
:104D6000C1FC0328F0D0FDF747FBC0F307238DF803
:104D7000053010F0FF04C0F307438DF804008DF8F0
:104D8000063015D0CF236846ADF80030002408F077
:104D90002FFAFFF755BBE32000F04CFD062000F092
:104DA00049FD4FF4FA6005F0D8FC0024FFF748BB3A
:104DB000CF2003F0DFFFFFF743BB1C4E307800F03D
:104DC00091FC02283FF43CAB307800F08BFC0328C8
:104DD0003FF436AB6C79E32054B100F01FFBE120C7
:104DE00000F01CFB202000F019FB0024FFF728BB7B
:104DF00000F02AFBE12000F027FB202000F024FB3C
:104E0000FFF71EBB6B79002B3FF42AAE622008F03F
:104E100049FA0024FFF714BB1C46FFF711BB1C46E0
:104E2000FFF70EBB1C46FFF70BBB00BF7224002030
:104E3000D0440020F7B5244E0546307800F052FCEF
:104E40000128044605D0307800F04CFCC11E4C42CD
:104E50004C411E4B1B781A0704D403B0BDE8F04048
:104E6000FEF742B9FDF7C8FAC0B2E8B9184F3B786F
:104E7000052B19D1FDF7C0FB164E10B9306003B0F9
:104E8000F0BD306860B9B7F84C309B0705D51048C5
:104E900006F0C6FA104805F060FC04F08DF9EDE765
:104EA00004F03FF9C728EED845B12CB1BD2003B0BE
:104EB000BDE8F04000F0EEBAA920F8E70CB1BE2042
:104EC000F5E7AA20F3E700BF73240020D0440020B8
:104ED0009049002068240020A0860100F8B5324ED9
:104EE00004463068314D002836D10023304A2B70FB
:104EF0001370304A13702B78A34227D02E4F3B7883
:104F00003BB1FDF7B5FB30B3002303203B70FDF749
:104F1000B5FB2B78A34229D22549264891F90020D8
:104F2000002A1EDD0278013A52B20270033201DA21
:104F3000FC220A70E31ADBB2012B07D091F9003092
:104F4000033302DA0020FFF775FF2C7001F014FD27
:104F500004F032F93060F8BD04F0E3F83128C4D829
:104F6000C9E7013A0A7000220270E3E7EED910495E
:104F7000104891F90020002A11DA0278013252B269
:104F8000032A027001DD04220A701B1BDBB2012B15
:104F9000DCD091F90030032BD7DD0120D3E70132BB
:104FA0000A7000220270F0E7602400205D240020D7
:104FB00030240020332400206424002008B501F0B0
:104FC000DBFC012008BD000037B5FDF751FB1F4C8D
:104FD00090BBFEF79BF978BB257895B14FF40002A2
:104FE0001B4B9A614FF080729A614FF00072C3F8C8
:104FF0001824FEF78BF938B303B0BDE8304001F058
:10500000BBBCFDF7F9F9C0F307238DF8013010F0B0
:10501000FF01C0F307438DF800008DF802300FD078
:1050200007F05CFF0378022B06D0FDF7E5F92A466E
:10503000C1B22846FDF75EF92378002BD9D0CDE721
:105040000120FEF739FAF7E703B030BD64240020F1
:10505000000400407FB52C4E306848B90020FEF7B0
:1050600097FBFFF7B1FF04B0BDE87040FEF7E8B86A
:1050700004F057F863283AD900230120336008F080
:1050800021FC012008F024FC0120FEF781FB0546ED
:1050900080B9FDF7B1F9C0B260B1FDF7ADF9C4B2A6
:1050A000B4FA84F4FDF7A8F96409C1B22A4620468F
:1050B000FDF720F902F01AFC02F02CFC10B90220D6
:1050C00002F00AFD114B124C1B7813F0010018BFBF
:1050D000D808FDF72DFE207800F004FB60B948F2F7
:1050E000A70302216846ADF8003007F0D9FE336807
:1050F000002BB3D004B070BD207800F0F3FA012883
:10510000EDD048F2A713ECE75424002020450020FE
:105110007224002004F0C4B810B5294C0023227872
:10512000032A0FD8DFE802F0021527390A21254AA1
:105130009170D370FDF714FA022805D0214803F0CE
:10514000F3FD0123237003E008F062FD0028F5D091
:1051500010BD1C4A9370F623D370FDF701FA0228A4
:1051600004D0184803F0E0FD0223EBE708F050FDFF
:105170000028F6D0ECE7F621124A9170D370FDF7C3
:10518000EFF9022804D00F4803F0CEFD0323D9E73E
:1051900008F03EFD0028F6D0DAE70A4A93700A23A9
:1051A000D370FDF7DDF9022804D0064803F0BCFDFA
:1051B0000023C7E708F02CFD0028F6D0C8E700BFA1
:1051C000342400204C240020024B1B780BB1FFF745
:1051D000A3BF70475C24002008B501F07BFF4FF4AB
:1051E000FA7005F0BAFABDE8084001F073BF00009C
:1051F0002DE9F8430024DFF84080DFF840900025D7
:105200000126EFB23946204601F09CFE20B1052C64
:105210000BD10DB989F800600135122DF1D101349F
:10522000E4B2062CEBD1BDE8F88357EA040308BFCB
:1052300088F80060F0E700BF362400203524002005
:1052400073B50024374B384D1C70384B01261C6059
:10525000FEF714FB22464FF40041354806F088FD66
:1052600020220421334806F083FD4FF40033284602
:10527000AB610122022106F07BFD2846012280213C
:1052800006F076FD4FF400032846AB612A4D4FF43B
:105290008172402106F06CFD2946EE60274805F03A
:1052A000E3FE82224FF480714FF0804006F060FDF3
:1052B0002946EE60224D234805F0D6FEFEF7EAF9B6
:1052C0002846FCF7B9FF03F077FF1F4B3246186002
:1052D0001E4B2146019320464FF4FA730094FDF7CC
:1052E0008DFF1B48FDF748FE15F8013C1B0716D53E
:1052F000FDF7EAFE002002F0D9FB02F03FFB38B1D7
:10530000144B1B7803F00603042B01D1FDF7B8FD05
:10531000FFF76EFF02B0BDE8704001F046BBFDF73D
:10532000E3FEE7E732240020000400403C24002094
:1053300000080040000C0040900C0020384600207F
:10534000D14400205446002054240020653F00082A
:10535000DD4E0008D044002070B5037805460B2BC5
:105360000E460BD10124447003F026FF044B314656
:1053700018602846FDF71AFB204670BD0020FCE7A8
:105380003C24002005280DD805290BD8112A09D85E
:105390006C235843122303FB0100034B104433F8E2
:1053A000100070470120704794E00008A0F580735A
:1053B000B3F5F85F10B526D210F4805F00F4807367
:1053C00000F4007400F4806100F400620DD0002B42
:1053D0000CBF002010200CB140F0200009B140F0BB
:1053E00040000AB140F0800010BD181E18BF012017
:1053F0000CB140F0020009B140F00400002AF3D0E3
:1054000040F00800F0E70020EEE710B50C46FFF78B
:10541000CDFF2346BDE8104018470000A0F1E0038F
:10542000072B10B5044600D940B920460449FFF7C0
:10543000ECFFE0B2BDE8104000F0FCB90149F6E72E
:1054400085590008AD5D000810B50446C0B200F0F3
:1054500039FAA4F1E003072B00D92CB903492046FF
:10546000BDE81040FFF7D1BF0149F8E797590008A0
:10547000BF5D000838B505460C46FFF7CFFF1CB9E5
:105480002846FFF7E1FF38BD6420013C05F065F9CF
:10549000A4B2F4E708B539280CBF50210121FFF769
:1054A000E9FF08BD012070470120704701207047C7
:1054B00001207047012070477047704708B5FFF71B
:1054C000FCFF08BD012070477047704713B502AB61
:1054D00003E903000F4B1B78B3B99DF8053073B196
:1054E0006AB100F0ABFD04460146009800F074FD7F
:1054F0002046009902B0BDE8104001F0FBBB0098C7
:1055000000F084FD0446F3E7009800F097FD009951
:10551000F0E700BF71240020034610B400885C88C7
:105520000A4640EA0440998810BCFFF7CFBF10B587
:1055300004460121FFF7F0FF2146FFF7B3FF30B12A
:1055400001212046FFF7E8FF2146FDF765F800F04E
:10555000010010BD38B500210446FFF7DDFF054608
:105560002146FFF7A9FF21462846FFF7A7FF38BDD0
:10557000012303FA00F0C0B200F091BC10B504465C
:105580000120A040C0B201F060F92046BDE8104003
:10559000FFF7EEBF0120704708B5FFF7FBFF08BD1E
:1055A00010B5044600F02CFC2046FFF78BFF204688
:1055B000FFF7F2FFBDE8104046F2A81005F0CDB8A5
:1055C00008B50120FFF7ECFFBDE8084003F042BE3C
:1055D00008B50020FFF7E4FFBDE8084003F060BE17
:1055E00038B501210546FFF797FF29460446FFF726
:1055F0005FFF08B9002038BD29462046FEF708FFA6
:105600000028F7D02946204603F047FA0028F1D0B9
:105610002946204602F06CFA0028EBD029462046A5
:1056200003F040F90028E5D02946204602F094FC1A
:105630000028DFD02946204602F068FC0028D9D097
:105640002946204603F07CF90028D3D0294620467D
:1056500001F056FC0028CDD06B797BB147F65A4358
:105660009C4222D00ED847F601439C421AD047F6FE
:1056700003439C4214D0B4F5F84F0ED02846FFF7F0
:1056800015FFB8E747F65B439C4211D047F65C43F1
:105690009C42F3D101F0A8F8F0E7FFF791FFA9E7EA
:1056A00001F0B4F8FFF794FFA4E701F0A9F8E5E7EB
:1056B00001F0A9F8E2E708B5FFF706FFFEF760F989
:1056C000002002F0F3F9BDE8084000F05FB808B52B
:1056D00002F00CF900F05FF8FFF7F7FEBDE80840B4
:1056E000FEF7CAB9034600091CBF034604209A0806
:1056F0001EBF13460230C0B25B081CBF0130C0B2EF
:10570000704701207047000010F0010FC2B214BFB3
:105710004FF400714FF0007112F0020F14BF4FF4FC
:1057200080724FF08072024B9961024B9A61704710
:10573000000800400004004038B50546FFF7E1FFCF
:10574000044610B12846FFF7DFFF204638BD0000B1
:1057500010B50B4C012220464FF4007106F008FBF7
:105760004FF00073A4F58064C4F8183401224FF49C
:105770008071204606F0FCFA4FF08073A36110BDE3
:105780000008004008B5FFF7D7FF08BD08B50020A6
:10579000FFF7F8FF08BD08B503F0ACFAFFF7F2FF1A
:1057A00008BD000010B503F0A5FA074B04461A78AF
:1057B000824207D0187003F0FFFC044B18602046AB
:1057C000FFF7E0FF10BD00BF702400206C24002014
:1057D0001FB56C4684E803009DF805300BB100F05E
:1057E000FFFE0023ADF80E3094E80300ADF80C1076
:1057F000C9B2029002AC29B994E8030000F04AFE55
:1058000004B010BD2046FFF792FE0028F4D1F7E760
:105810000379012B02D1008800F030BC704708B535
:1058200029B102F0FBFCBDE8084002F0CBBD02F05C
:1058300053FDF8E710B50446002840D0031FDBB243
:10584000A02B0ED803F0D8FA20B1204603F064FB59
:1058500000F05EFF204603F041FBBDE8104000F081
:1058600057BF00F12003DBB2072B07D800F0070475
:105870000120A040C0B200F08DFEEEE700F15B0316
:10588000DBB2022B05D8BDE81040243880B203F00B
:1058900055BA00F15803DBB21A2B06D8BDE8104008
:1058A000074A32F8130003F065BA3334E4B2122C1D
:1058B00005D802F0B3FCBDE8104002F083BD10BD76
:1058C000A4E5000808B50346A0B3021FD2B2A02A7F
:1058D00005D803F021FBBDE8084000F019BF00F136
:1058E0002002D2B2072A07D800F00703012098400F
:1058F000C0B200F057FEEEE700F15B02D2B2022A1E
:1059000004D8BDE80840002003F018BA00F158029E
:10591000D2B21A2A04D8BDE80840002003F02ABAFF
:105920003333DBB2122B05D802F0D6FCBDE80840B9
:1059300002F048BD08BD000038B50C460546FFF72B
:1059400079FF9CB140F2E73009494FF47A72A4FB29
:10595000014120184FF0000341F10001FAF746FC25
:1059600004F0FBFE2846FFF7ADFF38BD0120F7E746
:10597000A086010008B539280CBF50210121FFF78E
:10598000DBFF08BD08B528B100F004FEBDE8084003
:1059900000F0BEBE08BD08B528B100F003FEBDE8AA
:1059A000084000F0B5BE08BD2DE9F0478779814673
:1059B0000C46457900F0DEFD3F09064608B32E4649
:1059C000FDB1C4F3072303F0F002402A0CD0E1B28A
:1059D00001F12002D2B2072A26D903F0E003202BDE
:1059E00002D1012920D90FB3A04B5E7816F004062E
:1059F00007D0022000F0C8FE00F0BCFD80F00106D8
:105A0000F6B2C4F3033ABAF10B0F3ED8DFE81AF04E
:105A10001000100049004900A300BA003D003D00FD
:105A2000BF001D01300130010026EAE73E46E8E7ED
:105A3000C4F30723C4F3032713F0F00F18BF3F018B
:105A4000E4B285B157B104F12003DBB2072B38462D
:105A500000D92CB900F09EFD00F05AFE204640E02F
:105A600000F0AEFDF8E72046FFF72CFF6FB104F120
:105A70002003DBB2072B384600D914B900F092FDA1
:105A800001E000F0A5FD00F043FEAAF1080ABAF11A
:105A9000030F00F2428103F02DF9BDE8F047FFF754
:105AA00071BEC4F3072303F0F003C4F30328202BD3
:105AB000E4B218BF4FEA08182CB1012C34D0002DE5
:105AC0003CD0DFB1CAE7694B5B785A0714D45DB1AB
:105AD000B8F1000F04D0404600F05CFD00F018FE65
